S01300007465737470726F6A6563742E737265635A
S11300000C947A000C9499000C9499000C94990027
S11300100C9499000C9499000C9499000C949900F8
S11300200C9499000C9499000C9499000C949900E8
S11300300C9499000C9499000C9499000C949900D8
S11300400C9499000C9499000C9499000C949900C8
S11300500C9499000C9499000C9499000C949900B8
S11300600C9499000C9499000C9499000C949900A8
S11300700C9499000C9499000C9499000C94990098
S11300800C9499000C9499000C9499000C94990088
S11300900C9499000C9499000C9499000C94990078
S11300A00C9499000C9499000C9499000C94990068
S11300B00C9499000C9499000C9499000C94990058
S11300C00C9499000C9499000C9499000C94990048
S11300D00C9499000C9499000C9499000C94990038
S11300E00C9499000C9499000C9499000C94990028
S11300F00C94990011241FBECFEFCDBFDFE7DEBF04
S113010010E4A0E0B0E4E0E4FBE000E00BBF02C0D8
S113011007900D92A231B107D9F720E4A2E1B0E42F
S113012001C01D92AD34B207E1F70E9495020C9410
S11301309E050C940000E0E0F6E082E0808383E01A
S11301408093010686E08093080680818160808325
S11301501092600488E0809376040895CF93DF932F
S113016000D000D0CDB7DEB740E050E029C089838D
S11301709A8369817A8122E030E0241B350B220FB7
S1130180331F220F331FFB0102C0EE0FFF1F2A95FE
S1130190E2F7E983FA8329813A812F70332729838F
S11301A03A8329813A812B833C83EB81FC81E050A3
S11301B0F04C2081FA01E95CFF4B20834F5F5F4FD5
S11301C043305105A4F287E390E49F938F9380E139
S11301D090E49F938F9383E190E49F938F930E9485
S11301E0C1020F900F900F900F900F900F902496D4
S11301F0CDBFDEBFDF91CF910895CF92DF92EF9212
S1130200FF92AC01E0E0F0E0C12CD12C76012FC0CC
S11302109A01ADECBCEC0E94A70296958795969541
S11302208795969587959C01220F331F880F991FF8
S1130230880F991F880F991F820F931F9A01281BFB
S1130240390BC9010E2E02C0880F991F0A94E2F7D8
S1130250C80ED91EE11CF11C9A010E94A702AC0130
S11302605695479556954795569547953496411515
S1130270510571F6C701B601FF90EF90DF90CF9062
S11302800895CF93DF93CDB7DEB72897CDBFDEBFF8
S113029081E080930A0680910D068130E1F7809118
S11302A010069091110680933A4090933B408091C0
S11302B03A4090913B400E94AE0080913A40909128
S11302C03B40A0E0B0E089839A83AB83BC8329815F
S11302D03A814B815C81A4ECB9E00E94B602DC0156
S11302E0CB01072E7CE0B695A795979587957A95CF
S11302F0D1F7702D89839A83AB83BC8389819A81DA
S1130300AB81BC81853F9140A105B10568F089812D
S11303109A81AB81BC81845F9140A109B109898331
S11303209A83AB83BC8316C049815A816B817C81DB
S113033084EF91E0A0E0B0E0841B950BA60BB70B13
S113034089839A83AB83BC8381E090E080932440CB
S11303509093254089819A81AB81BC810E94FD00E4
S11303606D837E838F8398872896CDBFDEBFDF9110
S1130370CF91089580EF8093000481E0809340043E
S113038091E2909340098093410980934209E4E00B
S1130390F4E08081806880830895E4E0F4E0908153
S11303A090689083E4E4F4E0908110829091430992
S11303B09038E1F780934409809143098038E1F74C
S11303C0E4E0F4E080818F7780830895E4E0F4E052
S11303D0908190689083E4E4F4E09081916090834C
S11303E0909143099038E1F780934409809143093F
S11303F08038E1F7E4E0F4E080818F77808308952A
S11304000E94BA018FE39CE90197F1F700C0000054
S113041089E30E94CD0195E39A95F1F7000089E301
S11304200E94CD0125E32A95F1F700008EE10E9498
S1130430CD0185E38A95F1F7000085E50E94CD01A1
S113044095E39A95F1F700008CE60E94CD012FE721
S113045089EA93E0215080409040E1F700C0000019
S11304608CE00E94CD0125E32A95F1F7000081E09C
S11304700E94CD0185E38A95F1F7000086E00E9491
S1130480CD0195E39A95F1F700000895CF93DF939A
S11304900E94BA0180E80E94CD0185E38A95F1F7B4
S11304A00000C0E0D0E00BC0FE01ED5EFF4B808198
S11304B00E94E60185E38A95F1F700002196C03198
S11304C0D10594F380E90E94CD0185E38A95F1F783
S11304D00000C0E0D0E00BC0FE01EA5DFF4B80816C
S11304E00E94E60185E38A95F1F700002196C03168
S11304F0D10594F380EA0E94CD0185E38A95F1F752
S11305000000C0E0D0E00BC0FE01E45CFF4B808142
S11305100E94E60185E38A95F1F700002196C03137
S1130520D10594F3DF91CF9108950E9400020E94B7
S11305309B000E9441010E9446022FE78AE196E057
S1130540215080409040E1F700C00000F2CFA29F0C
S1130550B001B39FC001A39F700D811D1124911D93
S1130560B29F700D811D1124911D08950E94A70250
S1130570A59F900DB49F900DA49F800D911D1124F3
S113058008950F931F93CF93DF93CDB7DEB72E97C4
S1130590CDBFDEBF0D891E8986E08C8309831A8353
S11305A08FEF9FE78D839E83AE01475E5F4F6F8918
S11305B0788DCE0101960E94EA02EF81F885E00F62
S11305C0F11F10822E96CDBFDEBFDF91CF911F9118
S11305D00F9108952F923F924F925F926F927F9264
S11305E08F929F92AF92BF92CF92DF92EF92FF923F
S11305F00F931F93CF93DF93CDB7DEB72B97CDBF68
S1130600DEBF6C017B018A01FC01168217828381A3
S113061081FFCCC1CE0101963C01F6019381F70123
S113062093FD859193FF81917F01882309F4BAC1D9
S1130630853239F493FD859193FF81917F01853251
S113064029F4B60190E00E940405E7CF912C212CF7
S1130650312CFFE1F315D8F08B3279F038F4803285
S113066079F08332A1F4232D20611DC08D3261F015
S1130670803369F4232D216016C0832D8260382EC7
S1130680E32DE4603E2E2AC0F32DF8601DC037FC34
S11306902DC020ED280F2A3040F08E32B9F436FCFC
S11306A081C1232D2064322E19C036FE06C08AE093
S11306B0989E200D1124922E11C0EAE02E9E200D4A
S11306C01124222EF32DF0623F2E08C08C3621F423
S11306D0832D8068382E02C0883641F4F70193FDDB
S11306E0859193FF81917F018111B3CF982F9F7DD5
S11306F09554933028F40C5F1F4F9FE399830DC0EA
S1130700833631F0833771F0833509F059C021C045
S1130710F801808189830E5F1F4F88248394912C74
S1130720530113C02801F2E04F0E511CF801A080C0
S1130730B18036FE03C0692D70E002C06FEF7FEF19
S1130740C5010E94F9044C018201F32DFF773F2E6D
S113075016C0280122E0420E511CF801A080B1808D
S113076036FE03C0692D70E002C06FEF7FEFC50154
S11307700E94EE044C01F32DF0683F2E820133FCFD
S11307801BC0822D90E088169906B0F4B60180E271
S113079090E00E9404052A94F4CFF50137FC85917A
S11307A037FE81915F01B60190E00E94040521109B
S11307B02A9421E0821A91088114910471F7E8C007
S11307C0843611F0893641F5F80137FE07C060819F
S11307D07181828193810C5F1F4F08C06081718198
S11307E0072E000C880B990B0E5F1F4FF32DFF761D
S11307F03F2E97FF09C090958095709561957F4F26
S11308008F4F9F4FF0683F2E2AE030E0A3010E94F3
S11308104005882E861845C0853731F4232D2F7E58
S1130820B22E2AE030E025C0932D997FB92E8F3661
S1130830C1F018F4883579F0B5C0803719F08837DD
S113084021F0B0C0E92FE061BE2EB4FE0DC0FB2D37
S1130850F460BF2E09C034FE0AC0292F2660B22ED0
S113086006C028E030E005C020E130E002C020E10D
S113087032E0F801B7FE07C0608171818281938103
S11308800C5F1F4F06C06081718180E090E00E5FB5
S11308901F4FA3010E944005882E8618FB2DFF7769
S11308A03F2E36FE0DC0232D2E7FA22E891458F420
S11308B034FE0BC032FC09C0832D8E7EA82E05C0E9
S11308C0B82CA32C03C0B82C01C0B92CA4FE0FC0B3
S11308D0FE01E80DF11D8081803321F49A2D997E6B
S11308E0A92E09C0A2FE06C0B394B39404C08A2DF5
S11308F0867809F0B394A3FC11C0A0FE06C0B2141C
S113090088F4280C922C9B180EC0B21460F4B60123
S113091080E290E00E940405B394F7CFB21418F477
S11309202B1802C0982C212CA4FE10C0B60180E321
S113093090E00E940405A2FE17C0A1FC03C088E752
S113094090E002C088E590E0B6010CC08A2D86785C
S113095059F0A1FE02C08BE201C080E2A7FC8DE247
S1130960B60190E00E940405891438F4B60180E3CE
S113097090E00E9404059A94F7CF8A94F301E80D5D
S1130980F11D8081B60190E00E9404058110F5CF2D
S1130990222009F442CEB60180E290E00E940405D0
S11309A02A94F6CFF6018681978102C08FEF9FEFDC
S11309B02B96CDBFDEBFDF91CF911F910F91FF909A
S11309C0EF90DF90CF90BF90AF909F908F907F90EB
S11309D06F905F904F903F902F900895FC01059089
S11309E0615070400110D8F7809590958E0F9F1F2D
S11309F00895FC016150704001900110D8F7809572
S1130A0090958E0F9F1F08950F931F93CF93DF939D
S1130A10FB01238121FD03C08FEF9FEF2CC022FF38
S1130A2016C046815781248135814217530744F407
S1130A30A081B1819D012F5F3F4F208331838C932F
S1130A40268137812F5F3F4F2683378314C08B0164
S1130A50EC01FB010084F185E02D0995892BE1F679
S1130A60D80116968D919C911797019616968D93A1
S1130A709C931797CE01DF91CF911F910F91089509
S1130A80FA01AA27283051F1203181F1E8946F93BB
S1130A906E7F6E5F7F4F8F4F9F4FAF4FB1E03ED061
S1130AA0B4E03CD0670F781F891F9A1FA11D680FFF
S1130AB0791F8A1F911DA11D6A0F711D811D911D32
S1130AC0A11D20D009F468943F912AE0269F1124A7
S1130AD03019305D3193DEF6CF010895462F47700B
S1130AE0405D4193B3E00FD0C9F7F6CF462F4F7066
S1130AF0405D4A3318F0495D31FD4052419302D0C4
S1130B00A9F7EACFB4E0A695979587957795679569
S1130B10BA95C9F700976105710508959B01AC0169
S1130B200A2E06945795479537952795BA95C9F790
S1130B30620F731F841F951FA01D0895F894FFCFA3
S1130B4030313233343536373839414243444546FF
S1050B5073002C
S9030000FC
