:100000000C947A000C948C000C948C000C948C0052
:100010000C948C000C948C000C948C000C948C0030
:100020000C948C000C948C000C948C000C948C0020
:100030000C948C000C948C000C948C000C948C0010
:100040000C948C000C948C000C948C000C948C0000
:100050000C948C000C948C000C948C000C948C00F0
:100060000C948C000C948C000C948C000C948C00E0
:100070000C948C000C948C000C948C000C948C00D0
:100080000C948C000C948C000C948C000C948C00C0
:100090000C948C000C948C000C948C000C948C00B0
:1000A0000C948C000C948C000C948C000C948C00A0
:1000B0000C948C000C9400010C948C000C948C001B
:1000C0000C948C000C948C000C948C000C948C0080
:1000D0000C948C000C948C000C948C000C948C0070
:1000E0000C948C000C948C000C948C000C948C0060
:1000F0000C948C0011241FBECFEFCDBFDFE7DEBF15
:1001000020E4A0E0B0E401C01D92A935B207E1F7F8
:100110000E948E000C9487010C9400008EEF809357
:10012000200481E08093310478940000FECF109287
:10013000044020E030E027C080910804809305400F
:10014000809105408270809305408091054086959E
:10015000809305408091054090E0022E02C0880FF8
:10016000991F0A94E2F78093054090910540809191
:100170000440892B8093044080ED90E00197F1F7D3
:1001800000002F5F3F4F28303105B4F280910440CA
:100190008093584080915840089510922404E0EDD7
:1001A000F0E03197F1F7000040E050E01DC080938F
:1001B00006402091064030E0042E02C03595279578
:1001C0000A94E2F720930640909106409170909334
:1001D00006409091064090932404E0EDF0E03197C2
:1001E000F1F700004F5F5F4F4830510504F381E0A5
:1001F0008093240480ED90E00197F1F700000895CA
:100200001F920F920FB60F9211240BB60F922F93DD
:100210003F934F935F936F937F938F939F93AF938E
:10022000BF93CF93DF93EF93FF93F89420C00E9486
:10023000970080935740E0910040F09101408091F9
:100240005740E95FFF4B80838091004090910140CF
:1002500001968093004090930140809157408D30EB
:1002600031F481E090E080930240909303408091CC
:10027000024090910340892BD1F2C0E0D0E013C03E
:10028000FE01E95FFF4B808190E00E947F010E94A8
:10029000CD002FEF89EF90E0215080409040E1F7B2
:1002A00000C000002196809100409091014001978C
:1002B000C817D9072CF3109200401092014080E536
:1002C000E7E0F0E4DF011D928A95E9F71092024021
:1002D00010920340FF91EF91DF91CF91BF91AF91C9
:1002E0009F918F917F916F915F914F913F912F914E
:1002F0000F900BBE0F900FBE0F901F90189591118D
:10030000089581568A5108F4805285580895F894CA
:02031000FFCF1D
:00000001FF
