S00C00006C6162372E73726563B2
S11300000C947A000C948C000C948C000C948C004E
S11300100C948C000C948C000C948C000C948C002C
S11300200C948C000C948C000C948C000C948C001C
S11300300C948C000C948C000C948C000C948C000C
S11300400C948C000C948C000C948C000C948C00FC
S11300500C948C000C948C000C948C000C948C00EC
S11300600C948C000C948C000C948C000C948C00DC
S11300700C948C000C948C000C948C000C948C00CC
S11300800C948C000C948C000C948C000C948C00BC
S11300900C948C000C948C000C948C000C948C00AC
S11300A00C948C000C948C000C948C000C948C009C
S11300B00C948C000C948C000C948C000C948C008C
S11300C00C948C000C948C000C948C000C948C007C
S11300D00C948C000C948C000C948C000C948C006C
S11300E00C948C000C948C000C948C000C948C005C
S11300F00C948C0011241FBECFEFCDBFDFE7DEBF11
S113010020E4A0E0B0E401C01D92A330B207E1F7FF
S11301100E94CB000C94E1000C94000090916408C0
S113012090930140909101409072909301400DC0D2
S11301309DE09A95F1F70000909164089093014036
S113014090910140907290930140909101409032BF
S113015079F78093004080910040809362088091F9
S11301606408809301408091014080748093014031
S11301700DC08DE08A95F1F70000809164088093AA
S1130180014080910140807480930140809101403E
S1130190803479F708958AE090E08093680890931A
S11301A0690881E080936708809366088EEF8093E6
S11301B0200485E780930240809102400E948E00D3
S10901C0FBCFF894FFCF11
S9030000FC
