:100000000C947A000C948C000C948C000C948C0052
:100010000C948C000C948C000C948C000C948C0030
:100020000C948C000C948C000C948C000C948C0020
:100030000C948C000C948C000C948C000C948C0010
:100040000C948C000C948C000C948C000C948C0000
:100050000C948C000C948C000C948C000C948C00F0
:100060000C948C000C948C000C948C000C948C00E0
:100070000C948C000C948C000C948C000C948C00D0
:100080000C948C000C948C000C948C000C948C00C0
:100090000C948C000C948C000C948C000C948C00B0
:1000A0000C948C000C948C000C948C000C948C00A0
:1000B0000C948C000C948C000C948C000C948C0090
:1000C0000C948C000C948C000C948C000C948C0080
:1000D0000C948C000C948C000C948C000C948C0070
:1000E0000C948C000C948C000C948C000C948C0060
:1000F0000C948C0011241FBECFEFCDBFDFE7DEBF15
:1001000020E4A0E0B0E401C01D92A330B207E1F703
:100110000E94C4000C94EA000C940000109200406D
:1001200020E030E027C08091080480930140809156
:1001300001408270809301408091014086958093B8
:1001400001408091014090E0022E02C0880F991F6B
:100150000A94E2F780930140909101408091004021
:10016000892B8093004080ED90E00197F1F700002B
:100170002F5F3F4F28303105B4F2809100408093CB
:1001800002408091024008958CEF8093200488E023
:100190008093310480912804809300408091004036
:1001A000827080930040809100408111F3CF8BE8F2
:1001B0008A95F1F780912804809300408091004057
:1001C000827080930040809100408111E3CF0E94B3
:0801D0008E00E0CFF894FFCF90
:00000001FF
