:100000000C947A000C9491000C9491000C94910043
:100010000C9491000C9491000C9491000C9491001C
:100020000C9491000C9491000C9491000C9491000C
:100030000C9491000C9491000C9491000C949100FC
:100040000C9491000C9491000C9491000C949100EC
:100050000C9491000C9491000C9491000C949100DC
:100060000C9491000C9491000C9491000C949100CC
:100070000C9491000C9491000C9491000C949100BC
:100080000C9491000C9491000C9491000C949100AC
:100090000C9491000C9491000C9491000C9491009C
:1000A0000C9491000C9491000C9491000C9491008C
:1000B0000C9491000C9491000C9491000C9491007C
:1000C0000C9491000C9491000C9491000C9491006C
:1000D0000C9491000C9491000C9491000C9491005C
:1000E0000C9491000C9491000C9491000C9491004C
:1000F0000C94910011241FBECFEFCDBFDFE7DEBF10
:1001000010E4A0E0B0E4E0EBF2E000E00BBF02C0DE
:1001100007900D92A431B107D9F70E9493000C9477
:1001200056010C940000CF93DF93CDB7DEB76497F0
:10013000CDBFDEBF8FE1809300048BEF809320045E
:1001400087EE809340042FEF209360041092800488
:1001500084E494E0FC012083E4E6F4E0208330E2D0
:10016000308338E03093170430931604309315042D
:10017000E4E2F4E04081406240833093330434E1B0
:10018000E0E0F0E4DE01119601900D923A95E1F77E
:1001900038E1FC013083308120834FEF5FEF109214
:1001A0006404E4E2F4E080818F7D80838091280400
:1001B00082FDF5CFE0E4F4E084818FEF84838091C9
:1001C0000804807E11F440E050E0803211F441E0F8
:1001D00050E0803411F442E050E0803611F443E006
:1001E00050E0803811F444E050E04F3FFFEF5F07EC
:1001F00061F0829586958770E0E4F4E094819FEF4A
:1002000094839481809589238483E4E2F4E080815F
:100210008062808380E090E030C0E0E4F4E02481FC
:100220002F772483009711F4109264048130910594
:1002300019F425E5209364048230910519F42AEA23
:10024000209364048330910519F42FEF2093640404
:100250000000209188042F70FA01EE0FFF1FEE0FAF
:10026000FF1F61E070E06C0F7D1FE60FF71FE80FC6
:10027000F91F3081231306C00196843091056CF27A
:1002800081E001C080E0E0E4F4E094819FEF94839A
:10029000811103C094819F7D9483882309F47FCFCB
:1002A000E0E4F4E084818F7B848379CFF894FFCFFE
:1002B0000F0F0F000000000F000F0F0F000F0F00B7
:0402C0000F0F0F000D
:00000001FF
