:100000000C947A000C9499000C9499000C9499002B
:100010000C9499000C9499000C9499000C949900FC
:100020000C9499000C9499000C9499000C949900EC
:100030000C9499000C9499000C9499000C949900DC
:100040000C9499000C9499000C9499000C949900CC
:100050000C9499000C9499000C9499000C949900BC
:100060000C9499000C9499000C9499000C949900AC
:100070000C9499000C9499000C9499000C9499009C
:100080000C9499000C9499000C9499000C9499008C
:100090000C9499000C9499000C9499000C9499007C
:1000A0000C9499000C9499000C9499000C9499006C
:1000B0000C9499000C9499000C9499000C9499005C
:1000C0000C9499000C9499000C9499000C9499004C
:1000D0000C9499000C9499000C9499000C9499003C
:1000E0000C9499000C9499000C9499000C9499002C
:1000F0000C94990011241FBECFEFCDBFDFE7DEBF08
:1001000010E4A0E0B0E4EEE4F2E000E00BBF02C0D7
:1001100007900D92AA31B107D9F720E4AAE1B0E423
:1001200001C01D92AD31B207E1F70E94DD000C94D1
:1001300025010C9400009091640890931B409091CD
:100140001B40907290931B400DC09DE09A95F1F773
:1001500000009091640890931B4090911B40907216
:1001600090931B4090911B40903279F780931A40F6
:1001700090911A40909362089091640890931B406C
:1001800090911B40907490931B400DC09DE09A95F8
:10019000F1F700009091640890931B4090911B40F0
:1001A000907490931B4090911B40903479F78A375C
:1001B00019F48DE08093620808958AE090E08093BE
:1001C00068089093690881E08093670880936608C7
:1001D0008EEF8093200485E780931C40C0E0D0E040
:1001E000CE016AE170E00E94FD00FC01E050F04C9D
:1001F00080810E949B002196F3CF97FB072E16F477
:10020000009407D077FD09D00E94110107FC05D0AA
:100210003EF4909581959F4F0895709561957F4F1D
:100220000895AA1BBB1B51E107C0AA1FBB1FA6173D
:10023000B70710F0A61BB70B881F991F5A95A9F78F
:0E02400080959095BC01CD010895F894FFCFF4
:10024E006162636465666768696A6C6D6F7071720E
:0A025E00737475767778797A0000E2
:00000001FF
