:100000000C947A000C9499000C9499000C9499002B
:100010000C9499000C9499000C9499000C949900FC
:100020000C9499000C9499000C9499000C949900EC
:100030000C9499000C9499000C9499000C949900DC
:100040000C9499000C9499000C9499000C949900CC
:100050000C9499000C9499000C9499000C949900BC
:100060000C9499000C9499000C9499000C949900AC
:100070000C9499000C9499000C94B9030C94990079
:100080000C9499000C9499000C9499000C9499008C
:100090000C9499000C9499000C9499000C9499007C
:1000A0000C9499000C9499000C9499000C9499006C
:1000B0000C9499000C9499000C9499000C9499005C
:1000C0000C9499000C9499000C9499000C9499004C
:1000D0000C9499000C94EA030C9499000C949900E8
:1000E0000C9499000C9499000C9499000C9499002C
:1000F0000C94990011241FBECFEFCDBFDFE7DEBF08
:1001000010E4A0E0B0E4E8EEFEE000E00BBF02C0C7
:1001100007900D92AC36B107D9F720E4ACE6B0E415
:1001200001C01D92AA3CB207E1F70E946E040C9434
:1001300072070C940000E0E0F6E082E0808383E048
:100140008093010686E08093080680818160808329
:100150001092600488E0809376040895CF93DF9333
:1001600000D000D0CDB7DEB781E080930A06809141
:100170000D068130E1F78091100690911106809371
:100180009840909399408091984090919940A0E038
:10019000B0E089839A83AB83BC8329813A814B8108
:1001A0005C81A4ECB9E00E947B04DC01CB01072E4A
:1001B0007CE0B695A795979587957A95D1F7702DA0
:1001C00089839A83AB83BC8389819A81AB81BC810B
:1001D000853F9140A105B10568F089819A81AB8185
:1001E000BC81845F9140A109B10989839A83AB8363
:1001F000BC8316C049815A816B817C8184EF91E078
:10020000A0E0B0E0841B950BA60BB70B89839A8303
:10021000AB83BC8381E090E08093854090938640DF
:1002200089819A81AB81BC81BF93AF939F938F9358
:100230008AE090E49F938F9387E890E49F938F9355
:100240000E9495048091854090918640CDBFDEBF8D
:10025000019719F48DE280938D40E7E8F0E483E69E
:1002600084878EED8387818582878EE281871092D5
:100270008540109286402496CDBFDEBFDF91CF919E
:100280000895E9EBF0E4108211821282138208953E
:10029000089580E00E9436038093C5408091C54058
:1002A00090E00E94EA01089580E10E943603809365
:1002B000C5408091C54090E00E94EA01089580E227
:1002C0000E9436038093C5408091C54090E00E9413
:1002D000EA010895E9EBF0E48281938180839183C0
:1002E0008091C8409091C94082839383089560E0D3
:1002F00070E080E090E015C09B01220F331F660F75
:10030000771F660F771F660F771F620F731FFC0141
:10031000EE0FFF1FE754FF4B20813181620F731FE7
:1003200001968230910544F380E80E9410030895FD
:1003300060E070E080E090E015C09B01220F331F69
:10034000660F771F660F771F660F771F620F731F89
:10035000FC01EE0FFF1FE754FF4B20813181620F3C
:10036000731F01968230910544F380E80E941003C8
:10037000089560E070E080E090E015C09B01220FDE
:10038000331F660F771F660F771F660F771F620F89
:10039000731FFC01EE0FFF1FE754FF4B20813181DB
:1003A000620F731F01968230910544F380E80E942A
:1003B0001003089582E896E0809368089093690896
:1003C00083E08093670880EC8093660880E88093E0
:1003D0006508089590916408907803C0909164082E
:1003E00090789038D9F780936208089580EF8093D1
:1003F000000481E08093400491E29093400980934F
:10040000410980934209E4E0F4E0808180688083C0
:10041000089510924409909143099038E1F7E4E07F
:10042000F4E090819F779083E4E4F4E0908110827F
:1004300080934409809143098038E1F7E4E0F4E0D7
:1004400080818068808308951092440990914309C7
:100450009038E1F7E4E0F4E090819F779083E4E462
:10046000F4E09081916090838093440980914309E6
:100470008038E1F7E4E0F4E08081806880830895CB
:10048000CF93DF930E94F60180E80E94090285E382
:100490008A95F1F70000C0E0D0E00BC0FE01EC58F7
:1004A000FF4B80810E94240285E38A95F1F70000CA
:1004B0002196C031D10594F380E90E94090285E3B9
:1004C0008A95F1F70000C0E0D0E00BC0FE01E957CB
:1004D000FF4B80810E94240285E38A95F1F700009A
:1004E0002196C031D10594F380EA0E94090285E388
:1004F0008A95F1F70000C0E0D0E00BC0FE01E6569F
:10050000FF4B80810E94240285E38A95F1F7000069
:100510002196C031D10594F3DF91CF91089580EDFC
:100520008093000482E080934004E0E4F9E081E2FB
:10053000808391E090934109A4E4B4E08C918D7F95
:100540008C9394830895DC0180914309803819F0DD
:1005500081E080934409909143099038E1F7E4E009
:10056000F4E080818068808384E08A95F1F7E0E49C
:10057000F9E064836483909143099038E1F720E0C7
:1005800030E00CC0FD01E20FF31F9081909344090D
:10059000909143099038E1F72F5F3F4F642F70E04F
:1005A000261737077CF3E4E4F4E080818D7F8083B5
:1005B0000895DC0181E080934409909143099038CB
:1005C000E1F7E4E4F4E080818160808384E08A954F
:1005D000F1F760934409909143099038E1F720E0E6
:1005E00030E00FC091E09093440990914309903816
:1005F000E1F7FD01E20FF31F9091440990832F5F13
:100600003F4F642F70E02617370764F30000E4E4DF
:10061000F4E080818D7F808381E080934409089598
:1006200090914309903819F091E09093440990918A
:1006300043099038E1F7E4E4F4E09081916090831D
:1006400094E09A95F1F780934409809143098038AA
:10065000E1F760934409809143098038E1F7000095
:10066000E4E4F4E080818D7F8083089591E09093AD
:100670004409909143099038E1F7E4E4F4E0908173
:100680009160908394E09A95F1F78093440980916A
:1006900043098038E1F781E0809344098091430960
:1006A0008038E1F7E0E4F9E084810000A4E4B4E0FC
:1006B0009C919D7F9C9391E09483089547E060E82E
:1006C0008CE690E40E94A30247E060E08DEB90E4AA
:1006D0000E94D902EDEBF0E42081918182811F928A
:1006E0002F931F929F931F928F9385E190E49F9386
:1006F0008F9384E790E49F938F930E9495048DB726
:100700009EB70A968DBF9EBF08950F931F93CF93F8
:10071000DF9320E030E002C02F5F3F4FC82FD0E0D2
:10072000FE01EE0FFF1FE050F04C0190F081E02D34
:100730008901000F111F000F111FE00FF11F9081A1
:10074000961711F0963041F70280F381E02D09955C
:10075000CC0FDD1FC050D04C88819981FC01E00F87
:10076000F11F81818093C440DF91CF911F910F9140
:1007700008951F920F920FB60F9211240BB60F928D
:100780002F933F934F935F936F937F938F939F9399
:10079000AF93BF93EF93FF93F8940E945E030E9480
:1007A000AE000E944002789484E080934904FF9157
:1007B000EF91BF91AF919F918F917F916F915F91D9
:1007C0004F913F912F910F900BBE0F900FBE0F9046
:1007D0001F9018951F920F920FB60F9211240BB60F
:1007E0000F922F933F934F935F936F937F938F93CA
:1007F0009F93AF93BF93EF93FF93CF93DF931F929A
:10080000CDB7DEB78091600889838981833731F461
:1008100060E08091C4400E9485033CC08981883695
:1008200031F461E08091C4400E94850333C0898126
:100830008D3631F462E08091C4400E9485032AC065
:100840008981833631F463E08091C4400E9485033E
:1008500021C08981803380F089818A3368F489815D
:100860008F7090E08093C8409093C94064E080917D
:10087000C4400E9485030EC089818D3031F465E04B
:100880008091C4400E94850305C069818091C44065
:100890000E9485030F90DF91CF91FF91EF91BF915F
:1008A000AF919F918F917F916F915F914F913F9108
:1008B0002F910F900BBE0F900FBE0F901F901895A9
:1008C000109240048BE08093530460E08FE80E9414
:1008D000100364E08FE80E94100308950E948F02C5
:1008E0000E949B000E9460040E94DA011092C440A2
:1008F00078940000FECF0E948604A59F900DB49FBF
:10090000900DA49F800D911D11240895A29FB00108
:10091000B39FC001A39F700D811D1124911DB29F33
:10092000700D811D1124911D08950F931F93CF9376
:10093000DF93CDB7DEB72E97CDBFDEBF0D891E8901
:1009400086E08C8309831A838FEF9FE78D839E83D4
:10095000AE01475E5F4F6F89788DCE0101960E9490
:10096000BE04EF81F885E00FF11F10822E96CDBFF7
:10097000DEBFDF91CF911F910F9108952F923F928B
:100980004F925F926F927F928F929F92AF92BF929F
:10099000CF92DF92EF92FF920F931F93CF93DF934B
:1009A000CDB7DEB72B97CDBFDEBF6C017B018A01CF
:1009B000FC0116821782838181FFCCC1CE01019692
:1009C0003C01F6019381F70193FD859193FF81919D
:1009D0007F01882309F4BAC1853239F493FD8591EA
:1009E00093FF81917F01853229F4B60190E00E9446
:1009F000D806E7CF912C212C312CFFE1F315D8F04C
:100A00008B3279F038F4803279F08332A1F4232DDF
:100A100020611DC08D3261F0803369F4232D216087
:100A200016C0832D8260382EE32DE4603E2E2AC04E
:100A3000F32DF8601DC037FC2DC020ED280F2A30A3
:100A400040F08E32B9F436FC81C1232D2064322E61
:100A500019C036FE06C08AE0989E200D1124922E01
:100A600011C0EAE02E9E200D1124222EF32DF062FB
:100A70003F2E08C08C3621F4832D8068382E02C0AA
:100A8000883641F4F70193FD859193FF81917F01B1
:100A90008111B3CF982F9F7D9554933028F40C5F2C
:100AA0001F4F9FE399830DC0833631F0833771F078
:100AB000833509F059C021C0F801808189830E5F18
:100AC0001F4F88248394912C530113C02801F2E016
:100AD0004F0E511CF801A080B18036FE03C0692D75
:100AE00070E002C06FEF7FEFC5010E94CD064C01A0
:100AF0008201F32DFF773F2E16C0280122E0420E1F
:100B0000511CF801A080B18036FE03C0692D70E051
:100B100002C06FEF7FEFC5010E94C2064C01F32DAA
:100B2000F0683F2E820133FC1BC0822D90E08816B6
:100B30009906B0F4B60180E290E00E94D8062A94AB
:100B4000F4CFF50137FC859137FE81915F01B60145
:100B500090E00E94D80621102A9421E0821A910880
:100B60008114910471F7E8C0843611F0893641F59B
:100B7000F80137FE07C060817181828193810C5F2B
:100B80001F4F08C060817181072E000C880B990BE4
:100B90000E5F1F4FF32DFF763F2E97FF09C09095F4
:100BA0008095709561957F4F8F4F9F4FF0683F2ED6
:100BB0002AE030E0A3010E941407882E861845C061
:100BC000853731F4232D2F7EB22E2AE030E025C068
:100BD000932D997FB92E8F36C1F018F4883579F0AE
:100BE000B5C0803719F0883721F0B0C0E92FE06137
:100BF000BE2EB4FE0DC0FB2DF460BF2E09C034FE26
:100C00000AC0292F2660B22E06C028E030E005C0B9
:100C100020E130E002C020E132E0F801B7FE07C079
:100C200060817181828193810C5F1F4F06C060815A
:100C3000718180E090E00E5F1F4FA3010E941407B6
:100C4000882E8618FB2DFF773F2E36FE0DC0232DF4
:100C50002E7FA22E891458F434FE0BC032FC09C03A
:100C6000832D8E7EA82E05C0B82CA32C03C0B82CD3
:100C700001C0B92CA4FE0FC0FE01E80DF11D80815A
:100C8000803321F49A2D997EA92E09C0A2FE06C0B8
:100C9000B394B39404C08A2D867809F0B394A3FC6E
:100CA00011C0A0FE06C0B21488F4280C922C9B1828
:100CB0000EC0B21460F4B60180E290E00E94D80643
:100CC000B394F7CFB21418F42B1802C0982C212C2F
:100CD000A4FE10C0B60180E390E00E94D806A2FEF8
:100CE00017C0A1FC03C088E790E002C088E590E04F
:100CF000B6010CC08A2D867859F0A1FE02C08BE2A5
:100D000001C080E2A7FC8DE2B60190E00E94D80607
:100D1000891438F4B60180E390E00E94D8069A94D2
:100D2000F7CF8A94F301E80DF11D8081B60190E0C0
:100D30000E94D8068110F5CF222009F442CEB601D8
:100D400080E290E00E94D8062A94F6CFF6018681D0
:100D5000978102C08FEF9FEF2B96CDBFDEBFDF9153
:100D6000CF911F910F91FF90EF90DF90CF90BF90A8
:100D7000AF909F908F907F906F905F904F903F903B
:100D80002F900895FC010590615070400110D8F734
:100D9000809590958E0F9F1F0895FC0161507040C3
:100DA00001900110D8F7809590958E0F9F1F0895A0
:100DB0000F931F93CF93DF93FB01238121FD03C08A
:100DC0008FEF9FEF2CC022FF16C0468157812481F0
:100DD00035814217530744F4A081B1819D012F5FF3
:100DE0003F4F208331838C93268137812F5F3F4F84
:100DF0002683378314C08B01EC01FB010084F1854D
:100E0000E02D0995892BE1F6D80116968D919C91DC
:100E10001797019616968D939C931797CE01DF91A5
:100E2000CF911F910F910895FA01AA27283051F10F
:100E3000203181F1E8946F936E7F6E5F7F4F8F4F0B
:100E40009F4FAF4FB1E03ED0B4E03CD0670F781F6A
:100E5000891F9A1FA11D680F791F8A1F911DA11D4F
:100E60006A0F711D811D911DA11D20D009F4689488
:100E70003F912AE0269F11243019305D3193DEF630
:100E8000CF010895462F4770405D4193B3E00FD0E6
:100E9000C9F7F6CF462F4F70405D4A3318F0495DD1
:100EA00031FD4052419302D0A9F7EACFB4E0A695B4
:100EB0009795879577956795BA95C9F700976105D6
:100EC000710508959B01AC010A2E0694579547952C
:100ED00037952795BA95C9F7620F731F841F951F21
:080EE000A01D0895F894FFCF56
:100EE8006440544044403440244054656D70203A76
:100EF800202530330074696D653A2025643A2564ED
:100F08003A25640004036A01000141010500B901A2
:100F18000600480104036A01000141010500980127
:100F28000600480104026A01000141010500770139
:100F380006004801010249010203540103045F014C
:0C0F4800060048010001410106004801BC
:00000001FF
