:100000000C947A000C9499000C9499000C9499002B
:100010000C9499000C9499000C9499000C949900FC
:100020000C9499000C9499000C9499000C949900EC
:100030000C9499000C9499000C9499000C949900DC
:100040000C9499000C9499000C9499000C949900CC
:100050000C9499000C9499000C9499000C949900BC
:100060000C9499000C9499000C9499000C949900AC
:100070000C9499000C9499000C9402020C94990031
:100080000C9499000C9499000C9499000C9499008C
:100090000C9499000C9499000C9499000C9499007C
:1000A0000C9499000C9499000C9499000C9499006C
:1000B0000C9499000C9499000C9499000C9499005C
:1000C0000C9499000C9499000C9499000C9499004C
:1000D0000C9499000C9499000C9499000C9499003C
:1000E0000C9499000C9499000C9499000C9499002C
:1000F0000C94990011241FBECFEFCDBFDFE7DEBF08
:1001000010E4A0E0B0E4E6E5FAE000E00BBF02C0D6
:1001100007900D92A031B107D9F720E4A0E1B0E437
:1001200001C01D92AF35B207E1F70E9445020C9461
:1001300029050C94000080EF8093000481E08093F7
:10014000400491E2909340098093410980934209D1
:10015000E4E0F4E08081806880830895109244098F
:10016000909143099038E1F7E4E0F4E090819F77C3
:100170009083E4E4F4E090811082809344098091BC
:1001800043098038E1F7E4E0F4E08081806880830F
:10019000089510924409909143099038E1F7E4E002
:1001A000F4E090819F779083E4E4F4E090819160A3
:1001B000908380934409809143098038E1F7E4E01B
:1001C000F4E08081806880830895CF93DF930E945C
:1001D0009B0080E80E94AE0085E38A95F1F700005D
:1001E000C0E0D0E00BC0FE01E95EFF4B80810E94C1
:1001F000C90085E38A95F1F700002196C031D10549
:1002000094F380E90E94AE0085E38A95F1F700003F
:10021000C0E0D0E00BC0FE01E85DFF4B80810E9492
:10022000C90085E38A95F1F700002196C031D10518
:1002300094F380EA0E94AE0085E38A95F1F700000E
:10024000C0E0D0E00BC0FE01E75CFF4B80810E9464
:10025000C90085E38A95F1F700002196C031D105E8
:1002600094F3DF91CF91089580ED8093000482E0B4
:1002700080934004E0E4F9E081E2808391E0909390
:100280004109A4E4B4E08C918D7F8C93948308950C
:10029000DC0180914309803819F081E080934409A2
:1002A000909143099038E1F7E4E0F4E080818068C0
:1002B000808384E08A95F1F7E0E4F9E06483648365
:1002C000909143099038E1F720E030E00CC0FD0147
:1002D000E20FF31F90819093440990914309903865
:1002E000E1F72F5F3F4F642F70E0261737077CF34D
:1002F000E4E4F4E080818D7F80830895DC0181E077
:1003000080934409909143099038E1F7E4E4F4E0E4
:1003100080818160808384E08A95F1F7609344094D
:10032000909143099038E1F720E030E00FC091E070
:1003300090934409909143099038E1F7FD01E20F51
:10034000F31F9091440990832F5F3F4F642F70E01B
:100350002617370764F30000E4E4F4E080818D7F22
:10036000808381E0809344090895909143099038F7
:1003700019F091E090934409909143099038E1F786
:10038000E4E4F4E090819160908394E09A95F1F731
:1003900080934409809143098038E1F760934409D0
:1003A000809143098038E1F70000E4E4F4E08081C3
:1003B0008D7F8083089547E060E880E190E40E94AB
:1003C000480147E060E088E590E40E947E01E8E5AE
:1003D000F0E42081918182811F922F931F929F933D
:1003E0001F928F9380E090E49F938F9387E190E436
:1003F0009F938F930E944C028DB79EB70A968DBF34
:100400009EBF08951F920F920FB60F9211240BB644
:100410000F922F933F934F935F936F937F938F939D
:100420009F93AF93BF93EF93FF93F8940E94DB01E8
:100430000E94E500789484E080934904FF91EF9155
:10044000BF91AF919F918F917F916F915F914F91EC
:100450003F912F910F900BBE0F900FBE0F901F90EA
:100460001895109240048DE08093520480935304B9
:1004700060E08FE80E94B50161E08FE80E94B5015D
:1004800061E087E80E94B50108950E9434010E944E
:10049000310278940000FECF0F931F93CF93DF9328
:1004A000CDB7DEB72E97CDBFDEBF0D891E8986E0A2
:1004B0008C8309831A838FEF9FE78D839E83AE0120
:1004C000475E5F4F6F89788DCE0101960E9475025D
:1004D000EF81F885E00FF11F10822E96CDBFDEBFB1
:1004E000DF91CF911F910F9108952F923F924F92DC
:1004F0005F926F927F928F929F92AF92BF92CF92B4
:10050000DF92EF92FF920F931F93CF93DF93CDB7BC
:10051000DEB72B97CDBFDEBF6C017B018A01FC01EA
:1005200016821782838181FFCCC1CE0101963C01E6
:10053000F6019381F70193FD859193FF81917F01EE
:10054000882309F4BAC1853239F493FD859193FF6C
:1005500081917F01853229F4B60190E00E948F04D9
:10056000E7CF912C212C312CFFE1F315D8F08B3201
:1005700079F038F4803279F08332A1F4232D2061B0
:100580001DC08D3261F0803369F4232D216016C0C7
:10059000832D8260382EE32DE4603E2E2AC0F32D99
:1005A000F8601DC037FC2DC020ED280F2A3040F028
:1005B0008E32B9F436FC81C1232D2064322E19C04D
:1005C00036FE06C08AE0989E200D1124922E11C09E
:1005D000EAE02E9E200D1124222EF32DF0623F2EF4
:1005E00008C08C3621F4832D8068382E02C08836EE
:1005F00041F4F70193FD859193FF81917F01811172
:10060000B3CF982F9F7D9554933028F40C5F1F4FE4
:100610009FE399830DC0833631F0833771F08335C2
:1006200009F059C021C0F801808189830E5F1F4FF6
:1006300088248394912C530113C02801F2E04F0EBB
:10064000511CF801A080B18036FE03C0692D70E016
:1006500002C06FEF7FEFC5010E9484044C0182014C
:10066000F32DFF773F2E16C0280122E0420E511CC9
:10067000F801A080B18036FE03C0692D70E002C091
:100680006FEF7FEFC5010E9479044C01F32DF068F4
:100690003F2E820133FC1BC0822D90E08816990604
:1006A000B0F4B60180E290E00E948F042A94F4CF67
:1006B000F50137FC859137FE81915F01B60190E02D
:1006C0000E948F0421102A9421E0821A910881143B
:1006D000910471F7E8C0843611F0893641F5F801CC
:1006E00037FE07C060817181828193810C5F1F4F4B
:1006F00008C060817181072E000C880B990B0E5F7A
:100700001F4FF32DFF763F2E97FF09C090958095E0
:10071000709561957F4F8F4F9F4FF0683F2E2AE075
:1007200030E0A3010E94CB04882E861845C085378F
:1007300031F4232D2F7EB22E2AE030E025C0932DF8
:10074000997FB92E8F36C1F018F4883579F0B5C08D
:10075000803719F0883721F0B0C0E92FE061BE2E54
:10076000B4FE0DC0FB2DF460BF2E09C034FE0AC0DC
:10077000292F2660B22E06C028E030E005C020E117
:1007800030E002C020E132E0F801B7FE07C060812E
:100790007181828193810C5F1F4F06C060817181DE
:1007A00080E090E00E5F1F4FA3010E94CB04882ED3
:1007B0008618FB2DFF773F2E36FE0DC0232D2E7F92
:1007C000A22E891458F434FE0BC032FC09C0832DCC
:1007D0008E7EA82E05C0B82CA32C03C0B82C01C057
:1007E000B92CA4FE0FC0FE01E80DF11D80818033FD
:1007F00021F49A2D997EA92E09C0A2FE06C0B394B9
:10080000B39404C08A2D867809F0B394A3FC11C078
:10081000A0FE06C0B21488F4280C922C9B180EC0BF
:10082000B21460F4B60180E290E00E948F04B394A9
:10083000F7CFB21418F42B1802C0982C212CA4FE68
:1008400010C0B60180E390E00E948F04A2FE17C0A2
:10085000A1FC03C088E790E002C088E590E0B60103
:100860000CC08A2D867859F0A1FE02C08BE201C02F
:1008700080E2A7FC8DE2B60190E00E948F0489140B
:1008800038F4B60180E390E00E948F049A94F7CF89
:100890008A94F301E80DF11D8081B60190E00E9479
:1008A0008F048110F5CF222009F442CEB60180E2F8
:1008B00090E00E948F042A94F6CFF60186819781FA
:1008C00002C08FEF9FEF2B96CDBFDEBFDF91CF91A0
:1008D0001F910F91FF90EF90DF90CF90BF90AF905E
:1008E0009F908F907F906F905F904F903F902F9050
:1008F0000895FC010590615070400110D8F7809573
:1009000090958E0F9F1F0895FC01615070400190DB
:100910000110D8F7809590958E0F9F1F08950F9323
:100920001F93CF93DF93FB01238121FD03C08FEF42
:100930009FEF2CC022FF16C046815781248135814C
:100940004217530744F4A081B1819D012F5F3F4FAF
:10095000208331838C93268137812F5F3F4F2683FD
:10096000378314C08B01EC01FB010084F185E02D7D
:100970000995892BE1F6D80116968D919C911797D0
:10098000019616968D939C931797CE01DF91CF9188
:100990001F910F910895FA01AA27283051F12031B3
:1009A00081F1E8946F936E7F6E5F7F4F8F4F9F4F03
:1009B000AF4FB1E03ED0B4E03CD0670F781F891F45
:1009C0009A1FA11D680F791F8A1F911DA11D6A0F13
:1009D000711D811D911DA11D20D009F468943F91C6
:1009E0002AE0269F11243019305D3193DEF6CF01C5
:1009F0000895462F4770405D4193B3E00FD0C9F78B
:100A0000F6CF462F4F70405D4A3318F0495D31FDF7
:100A10004052419302D0A9F7EACFB4E0A69597954A
:100A2000879577956795BA95C9F700976105710520
:100A300008959B01AC010A2E06945795479537956A
:100A40002795BA95C9F7620F731F841F951FA01DC4
:060A50000895F894FFCFA9
:100A560074696D653A2025643A25643A2564000078
:00000001FF
