S01B00004D435032335331375F696E6F75745F746573742E737265635C
S11300000C947A000C948C000C948C000C948C004E
S11300100C948C000C948C000C948C000C948C002C
S11300200C948C000C948C000C948C000C948C001C
S11300300C948C000C948C000C948C000C948C000C
S11300400C948C000C948C000C948C000C948C00FC
S11300500C948C000C948C000C948C000C948C00EC
S11300600C948C000C948C000C948C000C948C00DC
S11300700C948C000C948C000C948C000C948C00CC
S11300800C948C000C948C000C948C000C948C00BC
S11300900C948C000C948C000C948C000C948C00AC
S11300A00C948C000C948C000C948C000C948C009C
S11300B00C948C000C948C000C948C000C948C008C
S11300C00C948C000C948C000C948C000C948C007C
S11300D00C948C000C948C000C948C000C948C006C
S11300E00C948C000C948C000C948C000C948C005C
S11300F00C948C0011241FBECFEFCDBFDFE7DEBF11
S113010020E4A0E0B0E401C01D92A230B207E1F700
S11301100E942E010C943C010C9400008091430930
S113012080930140809101408F77809301408091BA
S11301300140803849F080914309809301408091C7
S113014001408F778093014081E48093440980913A
S1130150430980930140809101408F77809301404F
S113016080910140803849F0809143098093014097
S1130170809101408F7780930140809144090895D4
S11301809091430990930140909101409F779093FF
S1130190014090910140903849F090914309909327
S11301A00140909101409F779093014090E4909397
S11301B044099091430990930140909101409F77A5
S11301C09093014090910140903849F090914309F7
S11301D090930140909101409F7790930140E4E413
S11301E0F9E0808380E48083809143098093014017
S11301F0809101408F778093014080910140803845
S113020049F08091430980930140809101408F77A8
S1130210809301406093440982E08093A40408958C
S113022080ED8093000484E08093A00481E08093B7
S11302304009809341098093420960E88AE00E9462
S1130240C00060E080E00E94C0006FEF80E10E9487
S1130250C0006FEF86E00E94C00008950E94100164
S113026089E00E948E008093004060910040609578
S10F02708AE10E94C000F4CFF894FFCF94
S9030000FC
