S00C00006C6162382E73726563B1
S11300000C947A000C948C000C948C000C948C004E
S11300100C948C000C948C000C948C000C948C002C
S11300200C948C000C948C000C948C000C948C001C
S11300300C948C000C948C000C948C000C948C000C
S11300400C948C000C948C000C948C000C948C00FC
S11300500C948C000C948C000C948C000C948C00EC
S11300600C948C000C948C000C948C000C948C00DC
S11300700C948C000C948C000C948C000C948C00CC
S11300800C948C000C948C000C948C000C948C00BC
S11300900C948C000C948C000C948C000C948C00AC
S11300A00C948C000C948C000C948C000C948C009C
S11300B00C948C000C948C000C948C000C948C008C
S11300C00C948C000C948C000C948C000C948C007C
S11300D00C948C000C948C000C948C000C948C006C
S11300E00C948C000C948C000C948C000C948C005C
S11300F00C948C0011241FBECFEFCDBFDFE7DEBF11
S113010020E4A0E0B0E401C01D92A230B207E1F700
S11301100E94FC000C941A010C9400009091430975
S113012090930140909101409F779093014090916A
S11301300140903849F09091430990930140909187
S113014001409F779093014090E4909344099091EB
S1130150430990930140909101409F77909301400F
S113016090910140903849F0909143099093014057
S1130170909101409F7790930140E4E4F9E08083FB
S113018080E4808380914309809301408091014001
S11301908F778093014080910140803849F08091AD
S11301A0430980930140809101408F7780930140FF
S11301B06093440982E08093A404089580ED8093C1
S11301C0000484E08093A00481E08093400980933C
S11301D041098093420960E88AE00E948E0060E051
S11301E080E00E948E006FEF80E10E948E006FEF2E
S11301F086E00E948E0008950E94DE002FE78AE1C7
S113020096E0215080409040E1F700C000006091EA
S1130210004060958AE10E948E00809100408F3FEB
S113022031F0809100408F5F80930040E7CF1092BF
S10B02300040E4CFF894FFCF75
S9030000FC
