:100000000C947A000C9499000C9499000C9499002B
:100010000C9499000C9499000C9499000C949900FC
:100020000C9499000C9499000C9499000C949900EC
:100030000C9499000C9499000C9499000C949900DC
:100040000C9499000C9499000C9499000C949900CC
:100050000C9499000C9499000C9499000C949900BC
:100060000C9499000C9499000C9499000C949900AC
:100070000C9499000C9499000C9499000C9499009C
:100080000C9499000C9499000C9499000C9499008C
:100090000C9499000C9499000C9499000C9499007C
:1000A0000C9499000C9499000C9499000C9499006C
:1000B0000C9499000C9499000C9499000C9499005C
:1000C0000C9499000C9499000C9499000C9499004C
:1000D0000C9499000C9499000C9499000C9499003C
:1000E0000C9499000C9499000C9499000C9499002C
:1000F0000C94990011241FBECFEFCDBFDFE7DEBF08
:1001000010E4A0E0B0E4ECE0F2E000E00BBF02C0DD
:1001100007900D92A431B107D9F720E4A4E1B0E42F
:1001200001C01D92AE31B207E1F70E949B000C9412
:1001300004010C9400000E94DD00FFCF80EF80934B
:10014000000482E0809340041092440497E290936C
:100150004009809341090895E4E4F4E090819260BD
:10016000908380934409809143098038E1F760933C
:100170004409809143098038E1F7E4E4F4E08081A8
:100180008D7F80830895E4E4F4E090819260908311
:1001900080934409809143098038E1F781E080939E
:1001A0004409809143098038E1F7E4E4F4E0808178
:1001B0008D7F8083809144090895CF93DF930E94BF
:1001C0009E0060E08FE80E94AC0064E08FE80E942F
:1001D000AC00C0E0D0E012C0FE01E65FFF4B61E082
:1001E00080810E94AC00FE01E050F04C80810E94B2
:1001F000C300FE01EC5EFF4B80832196CA30D1051F
:0C0200005CF3DF91CF910895F894FFCFDC
:10020C0020212223242526272829A0A1A2A3A4A5A6
:04021C00A6A7A8A940
:00000001FF
