:100000000C947A000C9491000C9491000C94910043
:100010000C9491000C9491000C9491000C9491001C
:100020000C9491000C9491000C9491000C9491000C
:100030000C9491000C9491000C9491000C949100FC
:100040000C9491000C9491000C9491000C949100EC
:100050000C9491000C9491000C9491000C949100DC
:100060000C9491000C9491000C9491000C949100CC
:100070000C9491000C9491000C9491000C949100BC
:100080000C9491000C9491000C9491000C949100AC
:100090000C9491000C9491000C9491000C9491009C
:1000A0000C9491000C9491000C9491000C9491008C
:1000B0000C9491000C9491000C9491000C9491007C
:1000C0000C9491000C9491000C9491000C9491006C
:1000D0000C9491000C9491000C9491000C9491005C
:1000E0000C9491000C9491000C9491000C9491004C
:1000F0000C94910011241FBECFEFCDBFDFE7DEBF10
:1001000010E4A0E0B0E4E2EBF2E000E00BBF02C0DC
:1001100007900D92A431B107D9F70E9493000C9477
:1001200057010C940000CF93DF93CDB7DEB76497EF
:10013000CDBFDEBF8FE1809300048BEF809320045E
:1001400080EE809340042FEF209360048FE0809333
:10015000800484E494E0DC012C932093640438E070
:1001600030931704309316043093150430933304FE
:1001700034E1E0E0F0E4DE01119601900D923A9551
:10018000E1F7E4E2F4E030813F613083DC013C914F
:100190003F613C93BFE33DE043E0B150304040401D
:1001A000E1F700C0000030812083DC013C912C93FA
:1001B0004FEF5FEF8091280482FDFCCFE0E4F4E094
:1001C00084818FEF848380910804807E11F440E065
:1001D00050E0803211F441E050E0803411F442E00C
:1001E00050E0803611F443E050E0803811F444E0F0
:1001F00050E04F3FBFEF5B0719F0809580932404D8
:1002000080E090E033C0E0E4F4E024812F672483B1
:10021000009711F4109264048130910519F425E5DA
:10022000209364048230910519F42AEA209364042F
:100230008330910519F42FEF20936404E1E2EA95ED
:10024000F1F70000209184042F70FA01EE0FFF1FD8
:10025000EE0FFF1F61E070E06C0F7D1FE60FF71FD0
:10026000E80FF91F3081231306C0019684309105F1
:1002700054F281E001C080E0E0E4F4E094819FEF7B
:100280009483811103C094819F6B9483882329F008
:10029000E0E4F4E084818F6D84837FE38DE093E07C
:1002A000715080409040E1F700C0000083CFF89487
:0202B000FFCF7E
:1002B2000F0F0F000000000F000F0F0F000F0F00B5
:0402C2000F0F0F000B
:00000001FF
